:020000040800F2
:100000005809002001010008BF1A000889190008DA
:10001000BD1A0008E5070008671F0008000000007F
:10002000000000000000000000000000F11B0008BC
:100030001F08000800000000C11A0008F31B000898
:100040001B0100081B0100081B0100081B01000820
:100050001B0100081B0100081B0100081B01000810
:100060001B0100081B0100081B0100081B01000800
:100070001B0100081B0100081B0100081B010008F0
:10008000E90700081B0100081B0100081B0100080C
:100090001B0100081B0100081B0100081B010008D0
:1000A0001B0100081B0100081B0100081B010008C0
:1000B0001B0100081B0100081B0100081B010008B0
:1000C0001B0100081B0100081B0100081B010008A0
:1000D0001B0100081B0100081B0100081B01000890
:1000E0001B0100081B0100081B010008DFF80CD0F1
:1000F00000F066FB004800477525000858090020FD
:100100000648804706480047FEE7FEE7FEE7FEE7B1
:10011000FEE7FEE7FEE7FEE7FEE7FEE7451C000818
:10012000ED000008202A04DB203A21FA02F0002129
:10013000704721FA02F3D040C2F1200291400843F7
:100140001946704740EA01039B0703D009E008C93C
:10015000121F08C0042AFAD203E011F8013B00F88C
:10016000013B521EF9D27047D2B201E000F8012BD8
:10017000491EFBD270470022F6E710B513460A4627
:1001800004461946FFF7F0FF204610BDF0B480EAA0
:100190000102D40F4200B2EB410F02D202460846E0
:1001A00011464A0042D0C30DDDB2C1F3C752AD1AA9
:1001B000202D35DAC1F3160141F4000204B1524298
:1001C000C5F1200602FA06F12A411044B3EBD05FD4
:1001D00023D0C4B1012DA0EBC35009DCF0BC4FF01B
:1001E000004202EAC352DBB200F5000000F05CBA44
:1001F000400000F1807000EBC350A0F1807040EA35
:10020000D170490009E0490841EAC071A0EBC35030
:1002100000F50000400800EBC350F0BC00F03BBA12
:100220006142012202EB4101001BF6E7F0BC70477E
:1002300081F00041AAE780F00040A7E780EA0102D0
:1002400010B502F00043400022D04A001FD0010E3A
:1002500001EB1261C0F35600C2F3560240F40000F5
:1002600042F40002A0FB022000047F39140400D0F5
:10027000401C50EA124001D44000491EC2B20C0694
:1002800004EBD010401C4008802A02D003E000207C
:1002900010BD20F00100002900DA0020184310BD35
:1002A00030B480EA010202F0004530F0004221F053
:1002B000004013D090B1C30DD40DC2F31601C0F3AA
:1002C0001600E41A41F4000140F400027D3491422A
:1002D00001D3641C00E04900002C02DA30BC00208D
:1002E00070474FF400000023914201D3891A034361
:1002F00040084FEA4101F7D151B1914202D14FF08C
:10030000004105E002D24FF0010101E06FF0010170
:1003100003EBC450284430BC00F0BDB92DE9FE4FBA
:10032000804681EA0300C00F0C46009021F0004196
:1003300023F00045B8EB0200A94105D24046214612
:1003400090461C460B46024623F00040104347D01F
:10035000270DC7F30A00C3F30A510290401A019017
:1003600040286BDAC3F3130040F4801B00989246D8
:1003700020B10023D2EB030A63EB0B0B0198594623
:10038000C0F14002504600F065F906460D46504661
:100390005946019A00F06DF910EB08006141002404
:1003A00087EA115284EAE7731A4340D0009A62B395
:1003B000019A012A4FEA075215DC001B61EB02018A
:1003C0004FF0004202EA0752CDE90042001C41F51D
:1003D000801132462B4600F0A4F903B0BDE8F08F3F
:1003E00040462146F9E7001B61EB0201001C41F584
:1003F000801300185B412018A2F5001747EB03019A
:1004000040EAD570B6196D4111E06D084FEA360625
:1004100045EAC0754FEA0752001B61EB0201001C60
:1004200041F5801149084FEA300000195141324628
:100430002B4603B0BDE8F04F00F064B900980122EC
:1004400040000023D0EB020263EBE07300982146EA
:100450004FEAE074B8EB000061EB0401E9E783F0D8
:1004600000435BE781F0004158E72DE9F04D81EA58
:10047000030404F0004B21F0004514464FF0000A3D
:1004800023F0004150EA050220D054EA01021DD0B9
:10049000C5F30A570246C5F31303C1F31300C1F3B2
:1004A0000A5640F4801543F48013A7EB0608101B8E
:1004B000D64608F2FD3873EB050002D308F10108B7
:1004C00001E092185B41B8F1000F03DA0020014609
:1004D000BDE8F08D00204FF48011064684460EE002
:1004E000171B73EB050705D3121B63EB05030643CC
:1004F0004CEA010C49084FEA300092185B4150EA7F
:100500000107EDD152EA030012D082EA040083EA27
:100510000501084305D0101BAB4106D20122002380
:1005200006E000224FF0004302E06FF0010253109A
:100530001AEB06004CEB085110EB0A0041EB0B01E3
:10054000BDE8F04D00F0DEB896230022114600F021
:10055000ABB80EB5C10F80EAE0700844CA070021AD
:1005600040F233438DE80E000A460B4600F0D9F8FE
:1005700003B000BD00F0004220F00040C10DC0F308
:10058000160040F400007F2901DA00207047962908
:1005900003DCC1F19601C84001E096398840002A89
:1005A000F4D04042704720F00040C10DC0F3160067
:1005B00040F400007F2901DA00207047962903DC0F
:1005C000C1F19601C840704796398840704700F0E5
:1005D000004230F000400AD0C10D01F56071C0F357
:1005E000160042EA0151C20840071143704700203B
:1005F0000146704701F0004330B421F0004150EA59
:10060000010206D00A0DA2F56072C1F31301002A9F
:1006100002DC30BC00207047440F44EAC104C10032
:10062000E01830BC00EBC25000F035B8002801DB08
:10063000C0F10040002901DBC1F100418142704757
:10064000002801DBC0F10040002901DBC1F10041BD
:1006500088427047202A04DB203A00FA02F1002089
:1006600070479140C2F1200320FA03F319439040F0
:100670007047202A06DBCB17203A41FA02F043EA02
:10068000E07306E041FA02F3D040C2F1200291404B
:100690000843194670470029A8BF7047401C49000D
:1006A00008BF20F00100704710B4B0FA80FC00FAD7
:1006B0000CF050EA010404BF10BC704749B1CCF102
:1006C000200421FA04F411FA0CF118BF012121438E
:1006D0000843A3EB0C01CB1D4FEA00614FEA102049
:1006E00042BF002010BC704700EBC35010440029EB
:1006F000A4BF10BC7047401C490008BF20F0010097
:1007000010BC704710B5141E73F1000408DA401CC9
:1007100041F1000192185B411A4301D120F0010020
:1007200010BD2DE9F04D92469B4611B1B1FA81F210
:1007300002E0B0FA80F220329046FFF78BFF0446C9
:100740000F4640EA0A0041EA0B0153465A46084365
:1007500013D0114653EA010019D0C8F140025046A7
:10076000FFF7E0FC05460E46504659464246FFF765
:1007700071FF084305D0012004E020463946BDE85A
:10078000F08D0020054346EAE0762C4337430A9873
:100790006305E40AA0EB08000022FD0A44EA47547E
:1007A0000A3002D500200146E9E701051019694128
:1007B000DDE9084500196941BDE8F04DA2E70000F8
:1007C000064C074D06E0E06840F0010394E807009E
:1007D00098471034AC42F6D3FFF78CFC1C26000877
:1007E0003C260008FEE70000014800F01BB80000AE
:1007F0001005002030B590F840500124AC40C56B86
:100800006C60046863604368102B036803D09960D0
:100810000068C26030BD9A600068C16030BD70473A
:10082000704700002DE9F05FC16B0C6801680B6830
:10083000D0F840C0042202FA0CF2494DDFF824A19E
:10084000494E4A4FDFF828B1DFF828E122422CD088
:100850005A072AD50A68920603D40A6822F00402CD
:100860000A600168A94201D1042219E0514501D171
:10087000402215E0B14202D14FF4806210E0B9424B
:1008800002D14FF480420BE0594502D14FF480224F
:1008900006E0714502D14FF4800201E04FF0806222
:1008A0002F4908394A60C16A3BE04FF0020808FA54
:1008B0000CF818EA040F4FF000094FF0010235D090
:1008C0005FEA837832D50B689B0605D40B6823F06A
:1008D0000A030B6080F821200168A94201D102229D
:1008E00019E0514501D1202215E0B14202D14FF467
:1008F000007210E0B94202D14FF400520BE05945AA
:1009000002D14FF4003206E0714502D14FF40012DB
:1009100001E04FF00072124908394A6080F82090D7
:10092000816A00291AD0BDE8F05F0847082505FA5A
:100930000CF5254212D01B0710D50B6823F00E03CF
:100940000B6090F84010C36B02FA01F159608263AA
:1009500080F8212080F82090016BE2E7BDE8F09F4D
:10096000080002401C0002403000024044000240E7
:10097000580002406C00024030B528B308C8134943
:1009800014221944B1FBF2F18900C163104981635B
:10099000022141771A6843F6F0718A43D0E90014C6
:1009A0002143D0E902452C43214304692143446992
:1009B00021438469214311431960002141630122CD
:1009C00042770177084630BD012030BDF8FFFDBFFA
:1009D0000000024070B5044690F820000025012870
:1009E0000CD0012084F8200094F821600020012E12
:1009F00006D084F820000225284670BD022070BD74
:100A0000022684F82160A0632068066826F00106AB
:100A100006602046FFF7EEFEE06A002820680168C5
:100A200002D041F00E0106E021F0040101602068CF
:100A3000016841F00A0101602068016841F001018C
:100A40000160D9E770B5044600F004F90546601C62
:100A500002D004480078044400F0FCF8401BA04297
:100A6000FAD370BD000000202DE9F84FDFF8B891EF
:100A7000002409F1040A0AF1040B23460F270BF1A5
:100A8000040EC9E00125A5402A40AA427DD1674E47
:100A9000D1F804C0ACEB0608B44532D014DCBCF18C
:100AA000030F3AD009DCBCF1000F2AD0BCF1010FD2
:100AB0001CD0BCF1020F31D11DE0BCF1110F17D0D9
:100AC000BCF1120F2AD119E0B8F5881F19D006DC45
:100AD000B8F5803F15D0B8F5801F1FD111E0B8F5EB
:100AE000001F0ED0B8F5041F18D10AE0CB6815E03E
:100AF000CB681B1D12E0CB6808330FE0CB680C33CA
:100B00000CE08B682BB1012B4FF0080303D045613B
:100B100004E0042302E0056100E00023FF2A01D87D
:100B2000064601E000F104064FEA840501D9A5F16B
:100B30002005D6F8008007FA05FC28EA0C0803FA1D
:100B400005F548EA0508C6F800804D68ED0062D555
:100B5000374DAE6946F00106AE61AD6924F003067B
:100B600005F001050095334D06EB050CDCF8085047
:100B7000A607360F07FA06F825EA0805DFF8B88059
:100B8000404503D14FF0000817E044E0DFF8AC80A7
:100B9000404502D14FF001080FE0DFF8A480404546
:100BA00002D14FF0020808E0DFF89880404502D1FA
:100BB0004FF0030801E04FF0040808FA06F848EA8D
:100BC0000508CCF808804D68D9F80060ED034D4663
:100BD00001D5164300E096432E604D68DAF80060B8
:100BE000AD03554601D5164300E096432E604D688F
:100BF000DBF80060ED025D4601D5164300E0964348
:100C00002E604D68DEF80060AD02754601D51643D2
:100C100000E096432E60641C0D682A46E5407FF490
:100C200031AFBDE8F88F0000000401400000111052
:100C3000001002400000014000080140000C01408B
:100C400000100140001401400AB10161704709041D
:100C5000FBE70000014880687047000000000020AA
:100C600002488168027811448160704700000020CA
:100C7000074810B5016841F010010160032000F041
:100C800075F8002000F006F800F024F8002010BDF0
:100C90000020024070B50D4D04464FF47A7128785B
:100CA000B1FBF0F00A490968B1FBF0F000F0CCFAB2
:100CB00048B9102C07D200222146501E00F036F809
:100CC00000206C6070BD012070BD0000000000209D
:100CD0000C0000200C4808B5816941F001018161D8
:100CE000816901F001010091C16941F08051C16148
:100CF000C06900F0805000900448416821F0E06134
:100D000041F00071416008BD001002400000014048
:100D1000002809DB00F01F020121914040098000FA
:100D200000F1E020C0F8001170470000F0B40E4B55
:100D30001B680C46C3F30223C3F10705042D00D939
:100D40000425191D072901D2002300E0DB1E01261E
:100D500006FA05F1491E214099409E40761E164034
:100D60003143F0BC01F088B90CED00E0064900F019
:100D7000070208684FF6FF03184040EA0220034AC2
:100D800010430860704700000CED00E00000FA0519
:100D90002DE9F0470F46050061D0434E306800F062
:100DA0000700B84209D2306820F0070038433060AD
:100DB000306800F00700B84251D128683B4C8107E9
:100DC00012D5400703D5606840F4E0606060287881
:100DD000000703D5606840F4605060606068A968EF
:100DE00020F0F000084360602878C00728D06868C9
:100DF000012810D02168022810D0890700292EDA96
:100E0000616821F0030101436160FFF723FF804621
:100E100041F288390DE021688903EFE78901EDE7A8
:100E2000FFF718FFA0EB0801494502D90320BDE8F0
:100E3000F0876068696800F00C00B0EB810FEFD1BB
:100E4000306800F00700B8420BD9306820F0070086
:100E500038433060306800F00700B84201D001200C
:100E6000E5E72878400705D56068E96820F4E06088
:100E7000084360602878000706D56068296920F477
:100E8000605040EAC100606000F018F86168084AEC
:100E9000C1F30311515CC840064908600648006868
:100EA000FFF7F8FE0020C2E70020024000100240D9
:100EB0000A2600080C0000200400002012A185B0C2
:100EC0000FC98DE80F0014A0144A006804905168FF
:100ED000134801F00C03042B10D0082B0ED1C1F3E2
:100EE0008343C9031DF803000AD5516804AAC1F35E
:100EF0004041515C0A4A5043B0FBF1F005B07047E5
:100F000008494843FAE700000203040506070809F8
:100F10000A0B0C0D0E0F1010010200000010024011
:100F200000127A0000093D002DE9F84F040070D04E
:100F30002078C04DC00749D06868C0F381000128FF
:100F400007D06868C0F38100022809D16868C0032F
:100F500006D52868800339D560680028E7D035E0D9
:100F60006068B0F5803F0BD010B1B0F5A02F11D064
:100F7000286820F480302860286820F4802002E06F
:100F8000286840F480302860606890B1FFF762FE06
:100F900006460AE0286840F480202860F0E700BF99
:100FA000FFF758FE801B642873D828688003F7D5A4
:100FB0000CE0FFF74FFE064605E000BFFFF74AFED4
:100FC000801B6428F0D828688003F7D420789A4ED4
:100FD00080074FF001094FF0000839D5686810F01C
:100FE0000C0F07D06868C0F38100022809D1686837
:100FF000C00306D42868800714D52069012808D1C9
:1010000010E02069B0B1C6F80090FFF723FE074654
:1010100005E00AE1FFF71EFEC01B0228C4D82868BD
:101020008007F7D52868616920F0F80040EAC10020
:1010300028600DE0C6F80080FFF70CFE074604E0CC
:10104000FFF708FEC01B022823D828688007F7D4C2
:10105000207800072CD57948A169D9B1C0F8009053
:10106000FFF7F8FD074604E0FFF7F4FDC01B022878
:101070000FD8686A8007F7D571484FF4FA510068B5
:10108000B0FBF1F0009000BF0098411E0091FAD231
:101090000EE080E0C0F80080FFF7DCFD074604E0CA
:1010A000FFF7D8FDC01B022875D8686A8007F7D4FF
:1010B0002078400760D5E8690027C00008D4E869B7
:1010C00040F08050E861E869012700F0805000900E
:1010D0005C480168C90513D40168834641F48071F6
:1010E0000160FFF7B7FD824606E000BFFFF7B2FDE3
:1010F000A0EB0A0064284ED8DBF80000C005F5D547
:10110000E06801280AD008B1052813D0286A20F029
:1011100001002862286A20F0040002E0286A40F0FA
:1011200001002862E06841F2883B98B1FFF792FD28
:1011300082460BE0286A40F004002862EEE700BF18
:10114000FFF788FDA0EB0A0159455AD8286A8007A5
:10115000F6D50CE0FFF77EFD824605E0FFF77AFD4D
:10116000A0EB0A0159454CD8286A8007F6D41FB174
:10117000E86920F08050E861E06988B36968C1F3EC
:101180008101022944D00228C6F8608004D0FFF70C
:1011900061FD044638E034E0FFF75CFD074604E0FB
:1011A000FFF758FDC01B02282BD828688001F7D410
:1011B000206AB0F5803F05D16868A16820F400304E
:1011C00008436860D4E908010843696821F4741190
:1011D00008436860C6F86090FFF73CFD044606E0EF
:1011E00025E000BFFFF736FD001B022809D828685C
:1011F0008001F7D51BE000BFFFF72CFD001B022884
:1012000002D90320BDE8F88F28688001F4D40EE0ED
:101210000128F7D06868226A00F48031914204D135
:10122000616A00F47010884201D00120EAE70020D2
:10123000E8E7000000100240000042428004424201
:101240000C0000200070004010B5401EB0F1807FFF
:1012500001D3012010BD4FF0E02460610F21601721
:1012600000F00AFF0020A06107202061002010BDCF
:1012700070B590F83C20012A26D0012480F83C402B
:10128000022280F83D2003685A689D6822F07006AB
:101290000A6832435A600D4B02689A4208D0B2F194
:1012A000804F05D00A4B9A4202D00A4B9A4204D191
:1012B000496825F080031943916080F83D40002182
:1012C00080F83C10084670BD022070BD002C014023
:1012D000000400400008004010B5040003D094F85A
:1012E0003D0010B107E0012010BD002084F83C0053
:1012F000204600F01FF8022084F83D00211D2068E0
:1013000000F0A2FC012084F8460084F83E0084F836
:101310003F0084F8400084F8410084F8420084F8DB
:10132000430084F8440084F8450084F83D00002020
:1013300010BD000038B505460068114988421ED12D
:101340001048C16941F00201C161C0690F4C00F051
:10135000020000900C482060102060600020802176
:10136000C4E9020120616061A061E0612046FFF7ED
:1013700003FB08B1FFF754FA6C62AC63656238BDD9
:1013800000040040001002406C00024010050020E4
:1013900070B5044690F83C00012817D0012584F868
:1013A0003C50022084F83D002068826822F07702D9
:1013B00022F47F4282600868502830D00DDC20285B
:1013C0004DD005DC98B310283BD148E0022070BD19
:1013D000302844D0402834D139E0602828D0702803
:1013E00006D0B0F5805F2CD0B0F5005F29D10AE0BF
:1013F000CB68D1E90121206800F0DEFC206881681B
:1014000041F0770109E0CB68D1E90121206800F0C3
:10141000D3FC2068816841F48041816011E0CA6892
:101420004968206800F07CFD5021206807E016E044
:10143000CA684968206800F084FD6021206800F0D7
:10144000C5FC84F83D50002084F83C0070BDCA689B
:101450004968206800F064FD40212068EFE72268B9
:1014600001461046EBE7704700B585B000210091BA
:1014700001910291039100680B49884211D10B48F8
:10148000816941F0040181618069694600F00400CE
:101490000490402000900220019003900448FFF740
:1014A000E3FA05B000BD0000000400400010024057
:1014B0000008014070B5044690F83C000D46012834
:1014C0000AD0012084F83C0042B1042A18D0082A2E
:1014D0002AD00C2A4DD139E0022070BD206800F0DE
:1014E0007DFC2068816941F0080181612068816983
:1014F00021F004018161206881692A69114311E0AA
:10150000206800F093FC2068816941F400618161EA
:101510002068816921F480618161206881692A697C
:1015200041EA0221816124E0206800F0ABFC2068E0
:10153000C16941F00801C1612068C16921F004015D
:10154000C1612068C1692A69114311E0206800F077
:10155000C5FC2068C16941F40061C1612068C169AE
:1015600021F48061C1612068C1692A6941EA0221D0
:10157000C161002084F83C0070BD10B5040003D0A8
:1015800094F83D0010B107E0012010BD002084F860
:101590003C00204600F01EF8022084F83D00211D8A
:1015A000206800F051FB012084F8460084F83E00DA
:1015B00084F83F0084F8400084F8410084F8420039
:1015C00084F8430084F8440084F8450084F83D0022
:1015D000002010BD70477047704700002DE9F041B2
:1015E00017460D0004460CD0042D11D0082D16D03E
:1015F00094F84100022819D094F84100012818D02D
:101600009AE094F83E00022810D094F83E00F5E7E6
:1016100094F83F00022809D094F83F00EEE794F8D0
:101620004000022802D094F84000E7E70220BDE81D
:10163000F0810FB9002B7FD14349444E444A022028
:1016400045B1042D16D0082D24D084F841000C2D6E
:101650003AD164E084F83E00606A8162606A39468B
:10166000C662606A02632268606A3432FFF7B2F9C8
:10167000F0BB1FE084F83F00A06A8162A06A39468F
:10168000C662A06A02632268A06A3832FFF7A2F934
:1016900070BB14E084F84000E06A8162E06A394679
:1016A000C662E06A02632268E06A3C32FFF792F9A0
:1016B000F0B92FE02068C16841F4007103E02068B0
:1016C000C16841F48061C16001222946206800F0B0
:1016D000F1FA20492068884203D1426C42F400426A
:1016E0004264206888420AD0B0F1804F07D000E001
:1016F00022E01949884202D01849884204D1816801
:1017000001F00701062903D0016841F001010160E1
:1017100000208CE72068C16841F40061D3E7206BAA
:101720008162206B3946C662206B02632268206B9F
:101730004032FFF74FF908B1012078E72068C1680F
:1017400041F48051BFE70000CF1C00082D1D0008A8
:10175000651D0008002C0140000400400008004006
:101760002DE9FF5F1C46DDE90E658246FEF702FFAC
:101770003C2190FBF1F0062190FBF1F201FB1200FD
:101780008146FEF7E6FE074688465046FEF71FFFF5
:1017900000224A4BFEF769FE3A464346FEF75FFEDB
:1017A000FEF728FF07464FF07E5840460199FEF7A6
:1017B0003FFD0299FEF742FD834638460199FEF748
:1017C0003DFD4146FEF737FD0299FEF737FD8246A3
:1017D00039464046FEF72CFD0199FEF72FFD4146A4
:1017E000FEF729FD0299FEF729FDDFF8D4800746B0
:1017F000B9F1060F60D2DFE809F0030D1E2F394A58
:1018000041460298FEF71AFDFEF7CDFE20704146D4
:10181000384608E041465046FEF710FDFEF7C3FE8D
:10182000207041460298FEF709FDFEF7BCFE3070BD
:10183000414658463BE041465846FEF7FFFCFEF75E
:10184000B2FE207041460298FEF7F8FCFEF7ABFEB0
:101850003070414638462AE041465846FEF7EEFCD5
:10186000FEF7A1FE20704146504608E0414638464A
:10187000FEF7E4FCFEF797FE207041465846FEF75F
:10188000DDFCFEF790FE3070414602980FE04146C5
:101890000298FEF7D3FCFEF786FE207041465846BC
:1018A000FEF7CCFCFEF77FFE307041465046FEF757
:1018B000C5FCFEF778FE2870BDE8FF9F00004E4093
:1018C00000007F432DE9F0412A4C00252E46D4F834
:1018D000B014294888474FF496784FF4B47700BF86
:1018E000B4F88404D4F89C24B6FBF0F100FB11603A
:1018F000761CB6B229469047D4F8B40480474046D7
:10190000FFF7A0F81435ADB2BD42E9D31B4D1C4E14
:101910001C4F4FF07E58D4F8AC1428468847D4F8B2
:10192000B4048047C820FFF78DF82846FEF74FFE25
:1019300032463B46FEF7F2FCFEF75CFE05464045AC
:10194000E9DB0025D4F8B01428468847D4F8B4045D
:101950008047C820FFF776F82846FEF738FE324663
:101960003B46FEF7DBFCFEF745FE05464045E9DB5E
:10197000BDE8F08110000020CDCCCC3E9A99193FF3
:101980009A9999999999A93FFEE70000094808B5E5
:10199000416941F0010141614069002200F001000C
:1019A000009011461020FFF7C1F9BDE80840102053
:1019B000FFF7AEB90010024070B586B00024184899
:1019C0000094019402940394816941F010018161B3
:1019D000816901F010010491816941F02001816168
:1019E000816901F020010491816941F00401816164
:1019F0008069012200F004000A4E55030490294634
:101A00003046FFF721F901200095CDE901040220BD
:101A1000039069463046FFF727F806B070BD000016
:101A2000001002400010014010B58EB00024079451
:101A3000089409940A940B941C2168460C94FEF7B0
:101A40009AFB1D481B49C0E900145921C0E9024115
:101A500004618461FFF740FC08B1FEF7E1FE4FF43A
:101A60008050079007A91448FFF792FC08B1FEF7D1
:101A7000D7FE1148FFF781FD08B1FEF7D1FE0B94A8
:101A80000BA90D480C94FFF7F3FB08B1FEF7C8FE55
:101A90006020CDE9000402940022694606480494BF
:101AA000FFF708FD08B1FEF7BBFE0348FFF7DCFCBB
:101AB0000EB010BD00040040C8040020FEE77047CF
:101AC000704700002DE9F05F1C46DDE90ABA914637
:101AD0000E46FEF739FD434D2946FEF7E1FB8046F1
:101AE0003046FEF731FD2946FEF7DAFB0746484649
:101AF000FEF72AFD2946FEF7D3FB06463946404647
:101B0000FEF79EFD01D2454607E031463846FEF716
:101B100097FD01D23D4600E0354639464046FEF786
:101B200085FD01D2414607E031463846FEF77EFD8D
:101B300001D2394600E031462846FEF779FB81465E
:101B400010F0FF401CD041462846FEF76FFD19D12A
:101B500031463846FEF774FD3146384605D8FEF763
:101B600067FB4946FEF79CFB2BE0FEF761FB49460D
:101B7000FEF796FB1C49FEF761FB1C49FEF706FBCE
:101B8000206022E039462846FEF750FD09D1414643
:101B90003046FEF74DFB4946FEF782FB4FF0804191
:101BA0000DE031462846FEF741FD0ED1394640464C
:101BB000FEF73EFB4946FEF773FB4FF08141FEF70F
:101BC000E5FA0949FEF73AFBDAE715F0FF4003D0E2
:101BD00029464846FEF764FBCBF80000CAF80050DF
:101BE000BDE8F09F00007F43000070420000B44356
:101BF0007047FFF735B830B58FB028216846FEF73B
:101C0000BAFA14210AA8FEF7B6FA01210804CDE9B0
:101C100000100024029402250491CDE907504FF4EE
:101C2000E01009906846FFF77FF90F20CDE90A051B
:101C30006802CDE90C4002210AA80E94FFF7A8F82B
:101C40000FB030BD70470000F0B50268164B174C5E
:101C5000174D4FF08047984205D0B84203D0A042BC
:101C600001D0A84203D122F070064A68324398425C
:101C700005D0B84203D0A04201D0A84203D122F43B
:101C80004074CA6822434C6922F0800222430260F9
:101C90008A68C2620A688262984201D10969016356
:101CA00001214161F0BD0000002C01400004004012
:101CB0000008004010B501F01F030121046A99409B
:101CC0008C430462016A9A401143016210BD10B551
:101CD000446A0121626A824205D121778069F8B99C
:101CE00084F83E101CE0A26A824206D102222277CA
:101CF0008069A8B984F83F1012E0E26A824206D1F6
:101D000004222277806958B984F8401008E0226BD9
:101D1000824205D108222277806908B984F84110EF
:101D20002046FFF758FC0020207710BD10B5446A0C
:101D3000616A814201D101200DE0A16A814201D195
:101D4000022008E0E16A814201D1042003E0216B16
:101D5000814201D1082020772046FFF73DFC00207A
:101D6000207710BD10B5446A0121626A824203D116
:101D7000217784F83E1019E0A26A824204D1022041
:101D8000207784F83F1011E0E26A824204D10420F7
:101D9000207784F8401009E0226B824204D10820A9
:101DA000207784F8411001E084F83D102046FFF7C9
:101DB0005AFB0020207710BD10B5846842EA032248
:101DC00024F47F440A432243826010BD826822F0DB
:101DD00070020A4342F007018160704730B5026A21
:101DE00022F001020262026A4368846924F07305EA
:101DF0000C682C4322F002058A682A430A4DA84247
:101E00000BD122F00805CA6823F440732A434D69B8
:101E100022F004021D438B692B43436084614968AF
:101E20004163026230BD0000002C014030B5026AFF
:101E300022F010020262026A436884690D6824F489
:101E4000E64444EA05248D6822F0200242EA0512A5
:101E50000B4DA8420ED1CD6822F0800242EA051255
:101E60004D6923F4406343EA85038D6922F0400203
:101E700043EA85034360846149688163026230BD3F
:101E8000002C014030B5026A22F480720262036ABB
:101E90004268C46923F4007324F073050C682C4372
:101EA0008D6843EA05230C4DA8420ED1CD6823F47A
:101EB000006343EA05234D6922F4405242EA0512C9
:101EC0008D6923F4806342EA05124260C461496867
:101ED000C163036230BD0000002C014030B5026ACE
:101EE00022F480520262046A4268C3690D6823F4D6
:101EF000E64343EA05238D6824F4005444EA05349C
:101F0000064DA84204D14D6922F4804242EA85126E
:101F10004260C36149680164046230BD002C014025
:101F200010B5036A046A24F001040462846924F091
:101F3000F00444EA021423F00A020A4384610262B4
:101F400010BD10B5036A23F0100303628369046AAD
:101F500023F4704343EA023224F0A00343EA011160
:101F60008261016210BDFEE710B500F013FBBDE811
:101F70001040FFF7A7BC000014480621A0F8841405
:101F80001349C0F894141349C0F88C141249C0F8CE
:101F900088141249C0F890141149C0F898141149D6
:101FA000C0F89C141049C0F8A0141049C0F8A4143B
:101FB0000F49C0F8A8140F49C0F8AC140E49C0F876
:101FC000B0140E49C0F8B41470470000100000208F
:101FD0000120000845210008E12400081121000823
:101FE000852100083D220008212300080124000863
:101FF00099200008C1200008E92000085D2500089C
:10200000F0B500240C701B4D14701C70B5F884449E
:1020100084422ED3002400EB400C802004EBCC063D
:102020002E4492F800E0F7783D2F02D320FA04F70F
:1020300000E000274EEA070E82F800E0F77A91F8F8
:1020400000E03D2F02D320FA04F700E000274EEA1B
:10205000070E81F800E0F67C1F783D2E02D320FAAF
:1020600004F600E000263743641CE4B21F70082C1D
:10207000D4D3F0BD100000200907090E002804DBAE
:1020800000F1E02080F80014704700F00F0000F12C
:10209000E02080F8141D704770B506460024074DF7
:1020A00006E0D5F89C24314620469047641CA4B233
:1020B000B5F88404A042F4D870BD000010000020E0
:1020C00070B506460024074D06E0D5F8A024314639
:1020D00020469047641CA4B2B5F88404A042F4D80A
:1020E00070BD00001000002070B506460024074DAA
:1020F00006E0D5F8A424314620469047641CA4B2DB
:10210000B5F88404A042F4D870BD0000100000208F
:102110002DE9F04116460F4680460024084D08E0A0
:10212000D5F888C433463A4641462046E047641C09
:10213000A4B2B5F88404A042F2D8BDE8F081000052
:10214000100000202DE9F04190460F46002504467E
:102150000B4E0FE005EB4500C119D6F888C48B780B
:102160004A78395C2046E0476D1CADB2454505D83C
:10217000641CA4B2B6F88404A042EBD8BDE8F08198
:10218000100000202DE9F04180464FF4B47086B075
:102190001C46814203D2012902D8012100E00146F8
:1021A0004FF07E550F46AA420ADA1D48824203DBF1
:1021B0001046FEF70CFA05E04FF03330194901E004
:1021C00000201949FEF716FA0646AC4209DA17480C
:1021D000844203DD2046FEF7FAF904E0144815496D
:1021E00001E000201049FEF705FA04463846FEF7E4
:1021F000ABF904AA03A9CDE9001202AB224631468D
:10220000FFF7AEFA0C489DF810309DF80C20D0F87E
:1022100088449DF808104046A04706B0BDE8F0810C
:102220009A99193F3333E33F0000F03F0AD7A33BAD
:102230007B14AE47E17A743F100000202DE9F04195
:10224000304C88B00D46D4F89464804604AB03AAA1
:1022500002A9B04706A905A8CDE9000107AB9DF882
:1022600010209DF80C109DF80800FFF72BFC4FF490
:10227000B470854203D2012D02D8012500E0054645
:102280002846FEF761F90746079005984FF07E55FE
:10229000A84209DA1C49884202DBFEF798F905E0FA
:1022A0004FF03330194901E000201949FEF7A2F937
:1022B000064605900698A84208DA1649884202DDCB
:1022C000FEF785F904E01448144901E000201049A4
:1022D000FEF790F90246069004A903A8CDE9000193
:1022E00002AB31463846FFF73BFAD4F888449DF8F4
:1022F00010309DF80C209DF808104046A04708B00B
:10230000BDE8F081100000209A99193F3333E33F74
:102310000000F03F0AD7A33B7B14AE47E17A743F3D
:102320002DE9F0412E4C88B00E46D4F894548046E6
:1023300004AB03AA02A9A84706A907A8CDE9000192
:1023400005AB9DF810209DF80C109DF80800FFF7D4
:10235000B9FB2448059F4FF07E55874203DAAF4210
:1023600002DC2F4600E007460597AE420ADA1E4817
:10237000864203DB3046FEF72AF905E04FF03330A2
:102380001A4901E000201A49FEF734F90646079081
:102390000698A84208DA1749884202DDFEF717F9C5
:1023A00004E01548154901E000201149FEF722F923
:1023B0000246069004A903A8CDE9000102AB31460C
:1023C0003846FFF7CDF9D4F888449DF810309DF8D1
:1023D0000C209DF808104046A04708B0BDE8F081E9
:1023E000100000200000B4439A99193F3333E33FB3
:1023F0000000F03F0AD7A33B7B14AE47E17A743F5D
:102400002DE9F0432E4D89B00C46D5F894648146F1
:1024100004AB03AA02A9B04707A906A8CDE90001A9
:1024200005AB9DF810209DF80C109DF80800FFF7F3
:1024300049FB2448059F4FF07E56874203DAB74296
:1024400002DC374600E0074606980597B04209DAF5
:102450001D49884202DBFEF7BAF805E04FF0333041
:102460001A4901E000201A49FEF7C4F88046069098
:10247000B44209DA1748844203DD2046FEF7A7F884
:1024800004E01548154901E000201149FEF7B2F8B3
:102490000246079004A903A8CDE9000102AB41461A
:1024A0003846FFF75DF9D5F888449DF810309DF85F
:1024B0000C209DF808104846A04709B0BDE8F083FD
:1024C000100000200000B4439A99193F3333E33FD2
:1024D0000000F03F0AD7A33B7B14AE47E17A743F7C
:1024E000F0B5154DB5F88444844224D300248026E9
:1024F00000EB400C26FA04F0104202D04FF03D0EE3
:1025000001E04FF01C0E04EBCC072F44084287F883
:1025100003E002D04FF03D0E01E04FF01C0E87F8B3
:102520000BE0184201D03D2000E01C20641CE4B206
:10253000F874082CDED3F0BD1000002002E008C8BB
:10254000121F08C1002AFAD170477047002001E02D
:1025500001C1121F002AFBD17047000040F28443E2
:10256000024A00210248FFF739B80000100000209D
:10257000C8040020FEF77CFBFFF73DFBFFF71CFAC9
:10258000FFF704FAFFF750FAFFF7F6FCFFF7ECFC51
:10259000FCE7000070B588B01422154903A8FDF7C8
:1025A000D1FD144C062203A9D4F88C34002004F584
:1025B00091649847E06A80474FF4FA763046FEF718
:1025C00041FAE56802AB01AA69460120A8472568DF
:1025D0009DF808309DF804209DF800100320A847BE
:1025E000E06A80473046FEF72DFA08B070BD000063
:1025F000F825000810000020FF000000FF00000088
:10260000FF0000FF00FF00FF0000000000000000CE
:102610000000010203040607080900003C26000828
:1026200000000020100000003C2500084C26000897
:1026300010000020480900004C250008010000009F
:0C26400010000000000000000024F40066
:04000005080000ED02
:00000001FF
